:100000000C942A000C942E050C9457050C94800532
:100010000C9447000C9447000C9447000C9426065F
:100020000C944F060C9478060C94D8050C94A905F2
:100030000C9447000C9447000C9447000C94470024
:100040000C9447000C9447000C9447000C94470014
:100050000C94470011241FBECFE5D8E0DEBFCDBF12
:1000600010E0A0E6B0E0E4E3F4E102C005900D92F8
:10007000A43FB107D9F721E0A4EFB0E001C01D9281
:10008000A031B207E1F70E940A030C94180A0C94FD
:1000900000000F931F93CF93DF938C01C0E0D0E05B
:1000A00010C0F801A481B581AC0FBD1F828193817E
:1000B000FC01EC0FFD1F41E06C9180810E947204F5
:1000C0002196F801808190E0C817D90754F3DF9199
:1000D000CF911F910F910895FF920F931F93CF938C
:1000E000DF938C01F62EC0E0D0E020C0F801A0859F
:1000F000B185AC0FBD1F86819781FC01EC0FFD1F00
:100100006C9180810E94F80481110FC0F801228552
:1001100033858F2D90E0880F991F880F991F820FCC
:10012000931FC80FD91F888108C02196F8018181CB
:1001300090E0C817D907D4F28FEFDF91CF911F91CC
:100140000F91FF9008950F931F93CF93DF93EC01CE
:1001500000E010E01CC0AC81BD81A00FB11FEA819E
:10016000FB81E00FF11F41E06C9180810E949903B7
:10017000AC81BD81A00FB11FEA81FB81E00FF11FAF
:1001800041E06C9180810E9472040F5F1F4F888153
:1001900090E008171907FCF200E010E00FC0A885F6
:1001A000B985A00FB11FEE81FF81E00FF11F42E082
:1001B0006C9180810E9499030F5F1F4F898190E0AD
:1001C0000817190764F3DF91CF911F910F910895DC
:1001D000EF92FF920F931F93CF93DF938C01C0E0B8
:1001E000D0E024C0C8010E944900F801A481B58173
:1001F000AC0FBD1F82819381FC01EC0FFD1F40E01D
:100200006C9180810E947204EC2E6C2FC8010E94B8
:100210006C00F82EFFEF8F1741F06E2DC8010E9481
:100220006C008F3FD1F78F2D08C02196F801808197
:1002300090E0C817D907B4F28FEFDF91CF911F91EB
:100240000F91FF90EF900895CF93C82F41E063E0A6
:1002500085E00E94720440E063E086E00E94720440
:10026000C4FB442740F961E084E00E947204C5FBAE
:10027000442740F961E085E00E947204C6FB4427F0
:1002800040F961E086E00E9472044C2F441F44272D
:10029000441F61E087E00E94720441E063E087E070
:1002A0000E94720483EF91E00197F1F700C0000013
:1002B00040E063E087E00E94720483EF91E00197E1
:1002C000F1F700C000004C2F417061E084E00E9413
:1002D0007204C1FB442740F961E085E00E9472048A
:1002E000C2FB442740F961E086E00E947204C3FB30
:1002F000442740F961E087E00E94720441E063E036
:1003000087E00E94720483EF91E00197F1F700C04B
:10031000000040E063E087E00E94720483EF91E018
:100320000197F1F700C00000CF910895CF93C82F37
:1003300040E063E085E00E94720440E063E086E014
:100340000E947204C4FB442740F961E084E00E94EB
:100350007204C5FB442740F961E085E00E94720405
:10036000C6FB442740F961E086E00E9472044C2FEE
:10037000441F4427441F61E087E00E94720441E06B
:1003800063E087E00E94720483EF91E00197F1F748
:1003900000C0000040E063E087E00E94720483EF49
:1003A00091E00197F1F700C000008091F4008823EC
:1003B00089F14C2F417061E084E00E947204C1FB1E
:1003C000442740F961E085E00E947204C2FB4427A3
:1003D00040F961E086E00E947204C3FB442740F9C3
:1003E00061E087E00E94720441E063E087E00E94E0
:1003F000720483EF91E00197F1F700C0000040E044
:1004000063E087E00E94720483EF91E00197F1F7C7
:1004100000C00000CF91089541E063E085E00E94B4
:10042000990341E063E086E00E94990341E063E0C4
:1004300087E00E94990341E061E084E00E94990313
:1004400041E061E085E00E94990341E061E086E0DF
:100450000E94990341E061E087E00E9499038FE0E8
:1004600097E20197F1F700C0000080E30E94960137
:1004700083EF91E00197F1F700C0000080E30E9454
:10048000960183EF91E00197F1F700C0000080E34F
:100490000E94960183EF91E00197F1F700C0000000
:1004A00080E20E94960183EF91E00197F1F700C08E
:1004B000000081E08093F4008CE00E94960186E0C9
:1004C0000E94960181E00E94960180E80E949601B8
:1004D00008950F931F93CF938C01C0E003C00E9437
:1004E0002401CF5FF801EC0FF11D80818111F7CF5E
:1004F000CF911F910F91089581E00E94960180E8AD
:100500000E9496010895CF93DF93CDB7DEB7E297AF
:100510000FB6F894DEBF0FBECDBF242FAB01BC01D8
:10052000CE0101960E94BE06CE0101960E9469028C
:10053000E2960FB6F894DEBF0FBECDBFDF91CF912C
:1005400008950E947C0284E790E00E946902609115
:10055000F60070E080E090E00E94100840E00E9409
:1005600083022FE78AE196E0215080409040E1F736
:1005700000C000000E947C0284E890E00E946902B2
:100580006091F50070E080E090E00E94100840E08B
:100590000E9483022FE78AE196E02150804090403C
:1005A000E1F700C000000E947C028091F6008111FA
:1005B00005C084E990E00E94690214C0803128F0EF
:1005C00088EA90E00E9469020DC09091F5008913BD
:1005D00005C08CEB90E00E94690204C084EC90E0BE
:1005E0000E9469022FE78AE196E021508040904006
:1005F000E1F700C000000E947C028DEC90E00E94B8
:1006000069021092F6006FE081E00E94AC068093D0
:10061000F5000895CF93DF93CDB7DEB7E1970FB61E
:10062000F894DEBF0FBECDBF6FE081E00E94AC0644
:100630008093F50084E089838A8380E090E020C085
:10064000EDE0F0E0EC0FFD1FE80FF91F8083E1E122
:10065000F0E0EC0FFD1FE80FF91F22E02083E5E139
:10066000F0E0EC0FFD1FE80FF91F34E0380F308386
:10067000E9E1F0E0EC0FFD1FE80FF91F2083019680
:1006800084309105ECF2CE010D969C838B83089605
:1006900098878F8304979E838D8308969A8789878E
:1006A00080E1E4E6F0E0DE015D9601900D928A952E
:1006B000E1F7CE014D969C878B874C970E94A30053
:1006C0000E940C0283EE90E00E94690210E0CE01CD
:1006D00001960E94E8008F3F31F18D3321F101E056
:1006E000010FEDE2F0E0EC0FFD1FE10FF11D808343
:1006F000EDE2F0E0EC0FFD1FE00FF11D1082CE01E6
:100700008D960E94A9098093F6000E947C02609158
:10071000F60070E080E090E00E94100840E00E9447
:100720008302102FD4CF8D3391F60E94A10210E0E6
:10073000CECF6130E1F138F0623009F46CC0633043
:1007400009F49DC00895413069F44AB321E030E0D6
:10075000B90102C0660F771F8A95E2F7CB01842B9F
:100760008ABB089541110EC04AB321E030E0B901BF
:1007700002C0660F771F8A95E2F7CB01809584232C
:100780008ABB0895423009F0ACC04BB321E030E0A1
:10079000B90102C0660F771F8A95E2F7CB01942F4B
:1007A000982B9BBB9AB3809589238ABB08954130CF
:1007B00069F447B321E030E0B90102C0660F771F4A
:1007C0008A95E2F7CB01842B87BB089541110EC0B7
:1007D00047B321E030E0B90102C0660F771F8A9568
:1007E000E2F7CB018095842387BB0895423009F05E
:1007F00078C048B321E030E0B90102C0660F771F2E
:100800008A95E2F7CB01942F982B98BB97B38095EC
:10081000892387BB0895413069F444B321E030E077
:10082000B90102C0660F771F8A95E2F7CB01842BCE
:1008300084BB089541110EC044B321E030E0B901FA
:1008400002C0660F771F8A95E2F7CB01809584235B
:1008500084BB0895423009F044C045B321E030E044
:10086000B90102C0660F771F8A95E2F7CB01942F7A
:10087000982B95BB94B38095892384BB0895413010
:1008800069F441B321E030E0B90102C0660F771F7F
:100890008A95E2F7CB01842B81BB089541110EC0EC
:1008A00041B321E030E0B90102C0660F771F8A959D
:1008B000E2F7CB018095842381BB0895423089F40F
:1008C00042B321E030E0B90102C0660F771F8A957C
:1008D000E2F7CB01942F982B92BB91B3809589239B
:1008E00081BB0895613039F138F0623009F442C0BB
:1008F000633009F45EC00895413069F44BB321E0E0
:1009000030E0B90102C0660F771F8A95E2F7CB018C
:10091000842B8BBB089541116AC04BB321E030E0BA
:10092000B90102C0660F771F8A95E2F7CB01809567
:1009300084238BBB0895413069F448B321E030E053
:10094000B90102C0660F771F8A95E2F7CB01842BAD
:1009500088BB089541114BC048B321E030E0B90194
:1009600002C0660F771F8A95E2F7CB01809584233A
:1009700088BB0895413069F445B321E030E0B90106
:1009800002C0660F771F8A95E2F7CB01842B85BBE7
:10099000089541112CC045B321E030E0B90102C0F7
:1009A000660F771F8A95E2F7CB018095842385BB7C
:1009B0000895413069F442B321E030E0B90102C04A
:1009C000660F771F8A95E2F7CB01842B82BB0895CF
:1009D00041110DC042B321E030E0B90102C0660F01
:1009E000771F8A95E2F7CB018095842382BB089517
:1009F000613089F028F06230C9F0633011F12CC009
:100A000029B330E0A90102C0559547958A95E2F7D0
:100A1000CA018170089526B330E0A90102C055953E
:100A200047958A95E2F7CA018170089523B330E0B3
:100A3000A90102C0559547958A95E2F7CA018170D0
:100A4000089520B330E0A90102C0559547958A95D5
:100A5000E2F7CA018170089580E008951F920F9215
:100A60000FB60F9211242F933F934F935F936F9381
:100A70007F938F939F93AF93BF93EF93FF93E091F7
:100A8000F700F091F800309709F00995FF91EF9188
:100A9000BF91AF919F918F917F916F915F914F9196
:100AA0003F912F910F900FBE0F901F9018951F929E
:100AB0000F920FB60F9211242F933F934F935F9392
:100AC0006F937F938F939F93AF93BF93EF93FF9316
:100AD000E091F900F091FA00309709F00995FF9143
:100AE000EF91BF91AF919F918F917F916F915F91A6
:100AF0004F913F912F910F900FBE0F901F9018951F
:100B00001F920F920FB60F9211242F933F934F9382
:100B10005F936F937F938F939F93AF93BF93EF9365
:100B2000FF93E091FB00F091FC00309709F00995EC
:100B3000FF91EF91BF91AF919F918F917F916F91B5
:100B40005F914F913F912F910F900FBE0F901F908B
:100B500018951F920F920FB60F9211242F933F9367
:100B60004F935F936F937F938F939F93AF93BF93B5
:100B7000EF93FF93E0910201F0910301309709F0A8
:100B8000099588B7816088BF8091060182BFFF9177
:100B9000EF91BF91AF919F918F917F916F915F91F5
:100BA0004F913F912F910F900FBE0F901F9018956E
:100BB0001F920F920FB60F9211242F933F934F93D2
:100BC0005F936F937F938F939F93AF93BF93EF93B5
:100BD000FF93809101018823F1F08091FE008F5FE7
:100BE0008093FE009091FD00891738F040E06091FD
:100BF00000018091FF000E9472048091FE00843603
:100C000088F041E0609100018091FF000E94720431
:100C10001092FE0007C0E0910401F09105013097A9
:100C200009F0099588B7826088BFFF91EF91BF9165
:100C3000AF919F918F917F916F915F914F913F9174
:100C40002F910F900FBE0F901F9018951F920F922B
:100C50000FB60F9211242F933F934F935F936F938F
:100C60007F938F939F93AF93BF93EF93FF93E09105
:100C70000E01F0910F01309709F00995FF91EF9166
:100C8000BF91AF919F918F917F916F915F914F91A4
:100C90003F912F910F900FBE0F901F9018951F92AC
:100CA0000F920FB60F9211242F933F934F935F93A0
:100CB0006F937F938F939F93AF93BF93EF93FF9324
:100CC000E0910C01F0910D01309709F00995FF9129
:100CD000EF91BF91AF919F918F917F916F915F91B4
:100CE0004F913F912F910F900FBE0F901F9018952D
:100CF0001F920F920FB60F9211242F933F934F9391
:100D00005F936F937F938F939F93AF93BF93EF9373
:100D1000FF93809109018F5F80930901E0910A019F
:100D2000F0910B01309709F009958091070190919E
:100D300008019DBD8CBDFF91EF91BF91AF919F9137
:100D40008F917F916F915F914F913F912F910F9074
:100D50000FBE0F901F901895CF93DF93D82FC62FFB
:100D60000E9499096C2F70E06D1B71096F5F7F4FB6
:100D70000E941F098D0FDF91CF9108957F928F926E
:100D80009F92AF92BF92CF92DF92EF92FF920F931A
:100D90001F93CF93DF936C014A015B01722E01E038
:100DA00010E00BC0C801880F991F000F111F000F22
:100DB000111F000F111F080F191FC501B4010E9458
:100DC000DA076017710770F79801ADECBCEC0E9470
:100DD00033097C01F694E794F694E794F694E7944B
:100DE000C0E0D0E02FC0C501B4010E94E107CB01F3
:100DF000B7010E940B09CB01F601EC0FFD1F20E3A8
:100E0000260F2083E89EB001E99E700DF89E700DBC
:100E1000112480E090E00E9410089B01AC01C50104
:100E2000B4010E946D074B015C019701ADECBCEC75
:100E30000E9433097C01F694E794F694E794F694C3
:100E4000E7942196E114F10471F60130110531F4B3
:100E5000F601EC0FFD1F80E380832196772051F18E
:100E6000F601EC0FFD1F8EE28083219623C020E067
:100E700030E040E251E4C501B4010E949E084B01FC
:100E80005C018E010F5F1F4FCC0DDD1D0E94E1073D
:100E900080E3860F888370E080E090E00E94120873
:100EA0009B01AC01C501B4010E946D074B015C01BF
:100EB0007A94E8017110DBCFCC0DDD1D1882DF9133
:100EC000CF911F910F91FF90EF90DF90CF90BF9047
:100ED000AF909F908F907F9008955058BB27AA277E
:100EE0000E9485070C9464080E94560838F00E94FE
:100EF0005D0820F039F49F3F19F426F40C94530850
:100F00000EF4E095E7FB0C944D08E92F0E9475085C
:100F100058F3BA17620773078407950720F079F42E
:100F2000A6F50C9497080EF4E0950B2EBA2FA02D81
:100F30000B01B90190010C01CA01A0011124FF2786
:100F4000591B99F0593F50F4503E68F11A16F04081
:100F5000A22F232F342F4427585FF3CF4695379580
:100F60002795A795F0405395C9F77EF41F16BA0B45
:100F7000620B730B840BBAF09150A1F0FF0FBB1FF3
:100F8000661F771F881FC2F70EC0BA0F621F731F3C
:100F9000841F48F4879577956795B795F7959E3F99
:100FA00008F0B0CF9395880F08F09927EE0F97952A
:100FB000879508950E94E1076894B1110C949808F0
:100FC00008950E947D0888F09F5798F0B92F9927BF
:100FD000B751B0F0E1F0660F771F881F991F1AF024
:100FE000BA95C9F714C0B13091F00E949708B1E0EA
:100FF00008950C949708672F782F8827B85F39F0E9
:10100000B93FCCF3869577956795B395D9F73EF4BC
:1010100090958095709561957F4F8F4F9F4F089564
:10102000E89409C097FB3EF4909580957095619582
:101030007F4F8F4F9F4F9923A9F0F92F96E9BB2738
:101040009395F695879577956795B795F111F8CFB4
:10105000FAF4BB0F11F460FF1BC06F5F7F4F8F4F1F
:101060009F4F16C0882311F096E911C0772321F015
:101070009EE8872F762F05C0662371F096E8862FAD
:1010800070E060E02AF09A95660F771F881FDAF704
:10109000880F9695879597F9089597F99F6780E847
:1010A00070E060E008959FEF80EC089500240A94BA
:1010B0001616170618060906089500240A94121633
:1010C0001306140605060895092E0394000C11F466
:1010D000882352F0BB0F40F4BF2B11F460FF04C013
:1010E0006F5F7F4F8F4F9F4F089557FD9058440F6C
:1010F000551F59F05F3F71F04795880F97FB991F77
:1011000061F09F3F79F08795089512161306140633
:10111000551FF2CF4695F1DF08C0161617061806C0
:10112000991FF1CF86957105610508940895E8949B
:10113000BB2766277727CB0197F908950E94B1084E
:101140000C9464080E94560838F00E945D0820F054
:10115000952311F00C944D080C94530811240C9411
:1011600098080E94750870F3959FC1F3950F50E0A1
:10117000551F629FF001729FBB27F00DB11D639F49
:10118000AA27F00DB11DAA1F649F6627B00DA11DEF
:10119000661F829F2227B00DA11D621F739FB00D95
:1011A000A11D621F839FA00D611D221F749F332705
:1011B000A00D611D231F849F600D211D822F762F9E
:1011C0006A2F11249F5750409AF0F1F088234AF07B
:1011D000EE0FFF1FBB1F661F771F881F91505040E7
:1011E000A9F79E3F510580F00C944D080C94980887
:1011F0005F3FE4F3983ED4F3869577956795B7956E
:10120000F795E7959F5FC1F7FE2B880F911D969587
:10121000879597F90895AA1BBB1B51E107C0AA1F28
:10122000BB1FA617B70710F0A61BB70B881F991F87
:101230005A95A9F780959095BC01CD01089597FB2B
:10124000072E16F4009407D077FD09D00E940B09F1
:1012500007FC05D03EF4909581959F4F08957095B9
:1012600061957F4F0895A29FB001B39FC001A39FD6
:10127000700D811D1124911DB29F700D811D1124CF
:10128000911D08950E943309A59F900DB49F900D64
:10129000A49F800D911D112408958F929F92AF926B
:1012A000BF92CF92DF92EF92FF92CF93DF93EC0148
:1012B000688179818A819B8161157105810591051C
:1012C00021F464E279ED8BE597E02DE133EF41E025
:1012D00050E00E94CF0949015A019B01AC01A7EAE5
:1012E000B1E40E9442096B017C01ACEEB4EFA501B0
:1012F00094010E94F109DC01CB018C0D9D1DAE1DF6
:10130000BF1DB7FF03C00197A109B0488883998327
:10131000AA83BB839F77DF91CF91FF90EF90DF90FF
:10132000CF90BF90AF909F908F9008950E944D09ED
:10133000089580E690E00E944D090895A0E0B0E095
:101340008093600090936100A0936200B09363006B
:101350000895FC0188279927E89421912032E9F328
:10136000293010F02E30C8F32B3241F02D3239F4F1
:10137000689404C00E94C709820F911D21912053D7
:101380002A30C0F31EF4909581959F4F08957AE01E
:10139000979F902D879F802D910D11240895052EE4
:1013A00097FB1EF400940E94E60957FD07D00E94A7
:1013B000F60907FC03D04EF40C94E60950954095CD
:1013C000309521953F4F4F4F5F4F089590958095F1
:1013D000709561957F4F8F4F9F4F0895B7FF0C9485
:1013E00042090E944209821B930B0895A1E21A2E22
:1013F000AA1BBB1BFD010DC0AA1FBB1FEE1FFF1FB9
:10140000A217B307E407F50720F0A21BB30BE40B08
:10141000F50B661F771F881F991F1A9469F760954F
:101420007095809590959B01AC01BD01CF01089509
:04143000F894FFCF5E
:10143400010000003738392F3435362A3132332D44
:1014440063303D2B796F7572206E756D6265722005
:1014540069733A005265616C206E756D6265722025
:1014640069733A0063686F6F73652061206E756DF0
:1014740062657220706C73006E756D6265722062B5
:1014840065747765656E20313A313500596F752082
:10149400576F6E00596F75204C6F737400477565F4
:1014A400737320616E6F74686572206E756D62650A
:1014B400723A0047756573732061206E756D6265BD
:0414C400723A200058
:00000001FF
